:080000003AC0FECFFDCFFCCF9A
:10000800FBCFFACFF9CFF8CFF7CFF6CFF5CF5BC05C
:10001800F3CFF2CFF1CFF0CFEFCFEECFEDCF102768
:10002800E80364000A00010000100001100001004C
:100038000000000000004D2E204152494546204650
:100048002E2E2E2E2E2E253032780000FFFFFFFF99
:10005800FFFF80C0010002003800040004003A00DD
:10006800060002035400020008035A000000F89436
:10007800EE27ECBBF1E0FBBFEBBFE5BF8DE0A2E0F4
:10008800BB27ED938A95E9F780E094E0A0E6ED932D
:100098000197E9F7ECE5F0E085919591009761F01B
:1000A800A591B59105901590BF01F00105900D92AD
:1000B8000197E1F7FB01F0CFEFE5EDBFE4E0EEBF1C
:1000C800C0E6D1E022C0EA93FA93EFB7EA93EFD4FF
:1000D8001BB10CB1E12FEC7189F4E52D5394F0E0DC
:1000E800E650FD4F0083E8E0E51509F455247394C4
:1000F800E8E0E71519F47724689420F80991199134
:10010800E991EFBFF991E9911895609780E1A0E036
:10011800B0E0EEE3F0E0D5D4E0E0E7BBE2E0E8BB36
:10012800E0E0E4BBE5BBECE0E1BBE2BBE0E0E3BF61
:10013800E2BFEFBDEEBDEDBDECBDE7BDE6BDEBBD7D
:10014800EABDE9BDE8BDE2BDE5BDE4BDE3BDE9BF8B
:10015800E5BFEBB9E8E9EAB9E6E8E0BDE0E0E0BD13
:10016800EDE4E9B9E0E8E8B9E0E0E0BFE6B9EDB907
:1001780026D0A0E142D27894A8EEB3E06ED448D15C
:100188003AD1A4E0C1D100E010E0A6D30E171F07B2
:100198008CF4EEE4F0E0A5D3A6E5B2E0A00FB11F21
:1001A800EC91FF276627772772D484E077D32696C9
:1001B8009BD3EBCFA4EFB1E050D4E3CFFFCFE0E087
:1001C800E1B9E7E0E0B9E4E007C0E4EAE6BFE6B792
:1001D800E7FFFDCF0895E4E9E6BF0895AA93E88113
:1001E800E3B9E4E8E6BFE6B7E7FFFDCF33C27FD364
:1001F800E881E295E07FEE0FEE0FE468E6BFE6B730
:10020800E7FFFDCFE3B10FC072D3DFDFA8E4E6DF7D
:1002180071D373D375D377D32CF479D3AC91DEDF54
:100228007BD3F7CFD8DF2296089561D340D400E07E
:1002380010E0E4ED6E2E74D3E0E075D371D311961F
:10024800EFEF71D372D3AC81BD811296EC934CD38E
:100258006CD3E195AC81BD811396EC9345D360D303
:100268001496E4ED60D346D366D34AD34CD364F4F2
:10027800F401359655D362D30F0163D3D00153D31C
:1002880060D36E0E49D3F0CFF401359649D3AE0F43
:10029800BF1FE62DE19547D3F801AC81BD81A05B76
:1002A800BF4FED93FC930AD42696089520D3FFD32D
:1002B80010E000E04CD311F48EDF02C0113009F0D9
:1002C800F9CF4ED34DD31E2FE03021F084DFE0E08C
:1002D800F5D318C148D344D31E2FEF3F19F04AD3A2
:1002E800EDD310C140D349D3FF93EF9339D3AF91E6
:1002F800BF91EC9342D3FF93EF9332D3AF91BF9169
:10030800EC933BD3FF93EF932BD3AF91BF91EC9337
:10031800F1D2EA81FB81E281F0E0319733D34CF4EA
:100328002CD3FF93EF931CD3AF91BF91EC93F4D2EE
:10033800F0CF23D3FF93EF93A0E0B0E058DFAF9165
:10034800BF91EC93F8D2DCD2E02FF0E0ED93FC9370
:1003580042DFE1E0B3D3D6C0AA93EB81FC81E2810E
:10036800F0E03197DF01E881F0E096D3EA1BFB0B60
:10037800A981BA81A05BBF4FED93FC93BBD2A98141
:10038800BA81BED2C0D28CF4F401A981BA81D6D286
:100398000F01D4011596E881F0E0D0D2AB81BC8181
:1003A800AE0FBF1FF2D2B8D2EACF259608951A939E
:1003B80010E0CDD211F40FDF02C0113009F0F9CFEF
:1003C800CFD2CED2E03011F0D5D213C0C9D2EF3F90
:1003D80011F0D0D20EC0C4D2E03011F0CBD209C097
:1003E800A0E0B0E004DFEF3F11F0C4D202C0F3DEBA
:1003F800E1E019910895E2E0CCD2E1E0F0E0CCD25E
:10040800DBD211F4DCD2FCCFDAD2DCD2E4D208950C
:10041800E4E1E3D2E4E1E6D2E0E0E0930702E4E0DD
:10042800F0E0BAD2C9D211F4CAD2FCCFC8D2CAD22B
:10043800A0E092DFA0910402A53111F4E1E0089553
:10044800E0E008950895EAE4C8D2E0E0CBD2E3E022
:10045800F0E0A2D2B1D211F4B2D2FCCFB0D2B2D273
:10046800BAD2A6EAB2E0E0910902F0E0ED93FC937B
:1004780041D232D287D254F4D401AA5ABD4FF401E2
:10048800E65FFD4FE081EC9347D2F3CF08952FD27A
:10049800DADFE0E4A2D2EA81E03011F0E1E601C05F
:1004A800E0E6A0D2EB81E093070224D2E6E0F0E098
:1004B80069D244F4F401E85FFD4F0F0128D265D2F8
:1004C8002BD2F4CF17D208D25DD25CF4F401E25FEC
:1004D800FD4F0F01A6E5B2E0A80DB91D56D21CD2FA
:1004E800F2CFFAD13A9658D267D211F468D2FCCF3B
:1004F80066D268D270D2E0910402E03011F0E0E0F8
:1005080001C0E1E024960895AA93E881EA93E0E027
:10051800EA93A2E0B3E0BBDFE03011F4E0E09AC078
:10052800E0E45BD2E0E35ED2E881E0930702E4E036
:10053800F0E032D241D211F442D2FCCF40D242D2C2
:100548004AD2E0910402E03011F0E0E083C0E0E636
:10055800F1E0C7D1E8EAF2E0C4D1A2E0FDDEE1E0D3
:1005680079C0C5D1A991B991EE27FF276D9166236E
:1005780011F03196FBCF0895BAD1AA27BB27E9918C
:10058800F9910590002011F01196FBCFFD01089517
:10059800AA93E881E07111F0AB9A01C0AB98E881A9
:1005A800E07211F0AA9A01C0AA98E881E07411F0EB
:1005B800A99A01C0A998E881E07811F0A89A01C029
:1005C800A89813D2949A11D294980FD243C0AA93A0
:1005D800A881DEDFE881E295E883A881D9DF88EC8D
:1005E8008A95F1F737C0A2E004D2ACE0F0DFA1E0D1
:1005F80000D2E0E0AE2EBE2E0895AA93A39AA29A46
:10060800A19AA09A8C9A8E9A8D9A94989698959871
:10061800D880E881E058E0930A03E881E054E09349
:100628000B03CDD1EAD1E9D1E8D1A0E2B1DF8CE268
:1006380091E00197F1F7A8E2CADFA4E0C8DFA5E8D6
:10064800C6DFA6E0C4DFCFDF05C0AA935D9BFECF5F
:10065800E881ECB9219608954AD1AA81F6DF4DD1F7
:10066800ED91FD913196FE93EE93239608953FD137
:10067800269719D210E0AC85BD85E0E0F0E0ED9357
:10068800FC93EA89FB893196EA8BFB8B3197E491DD
:100698002E2FE03009F4FCC0E12FE03031F4253290
:1006A80011F411E001C0B0D1F2C0E130A1F425325B
:1006B80011F4AAD1EBC012E040E000E02D3211F4B1
:1006C80001E0E5C02B3211F44BE2E1C0203211F415
:1006D80040E2DDC002C0E23039F450E013E02033DC
:1006E80011F40068D4C003C0E33009F0D0C020334F
:1006F80010F02A3308F007C0AAE05A9F502DE22FC5
:10070800E0535E0FC4C0E22FE33639F484D186D1BA
:1007180082D1A481AA9386D1B9C0E33729F488D1BC
:1007280089D11FDF1E2F07C0E03749F481D182D15C
:1007380023DF1E2F086002600F7730E02DC0E436FB
:1007480011F0E93611F4046002C0E53729F4E6E255
:10075800F0E079D115E00BC0E83511F4086003C06A
:10076800E83709F093C0E0E3F0E06DD114E002FF50
:1007780011C05ED16BD1AB85AA2332F4EA85FB8523
:100788007AD1EA87FB874DE2403011F01F5F01C044
:100798000B7F02C04DD15AD100FD10C0151770F45F
:1007A80007FF08C002FF04C00B7F242F115001C0AF
:1007B80020E301C020E228D15150F0CF312F01FFB2
:1007C80015C0303091F003FF05C0EE81FF812591FF
:1007D8003AD105C0AE81BF812D91AE83BF8314D1BC
:1007E800503009F051503150ECCF47C020E3EE8132
:1007F800FF8149D1E887F987EE81FF81329623D1BD
:10080800E885F985AA85BB85AE17BF0750F02F5F2D
:10081800A885B985EA85FB85EA1BFB0BEA87FB8778
:10082800EFCF2A3328F003FF02C0295F01C0295DFA
:1008380004FD19C0213320F4A885B985119709F45E
:1008480009C0531710F000FF01C011C020E207FFD4
:100858000AC020E3006102FF06C00B7F4A93E2D082
:10086800503009F05150D0D0503009F0515031502B
:10087800A885B985129708F0B9CF00FF07C0503096
:1008880029F05150E0E2EA93CDD0F9CF10E0F9CE4B
:10089800AC85BD85F4D00ED164960895FF92F82EEC
:1008A800269705D1DE011496E2D08D01E0E0EC83B5
:1008B800ED83EE83EF83DE011896D9D0E0D011D016
:1008C8001A930A93E0E3F3E00CD0DE011896CFDE2A
:1008D800F5D02896FF900895E091A602F091A7021E
:1008E8000895FA93EA9308950F5F1F4F0895BA93F6
:1008F800AA930895882499240895A881B981089510
:10090800A05BBF4F0895BBD08E169F060895F401D3
:10091800F4DFAE0FBF1F0895F40131964F0108951B
:10092800AC81BD810895EC93DFCFAA81BB81E8DF5C
:10093800EC91EF5F0895AA81BB810895EA0FFB1F30
:100948000895F401F8DFAE0FBF1FEC9108953DDC68
:10095800A9E444DCA1E0B0E04ADC1E2F1030089581
:10096800A1E0B0E044CCE02F0F5FE5DFF0E0E6DF88
:100978001083089530DCE0E00895E02F0F5FDBDF9F
:10098800F0E0DCCF8E169F060895EC91D001EC9331
:100998000895E09304020895E0935402F0935502F9
:1009A800E2EBF1E09EDFA4E0B2E03FDCA2EBB1E0D5
:1009B8002BDCA4E1B0E051C0FADCE0300895A4E1FA
:1009C800B0E04BC0A0E6B1E071DCE0E6F1E089DF21
:1009D800E4E0F2E086CFA1E0BFCCDBDFE1E0E0932A
:1009E80005020895E0930602089584E18A95F1F7D7
:1009F8000895EDDDA3E0B0E030C0A0E3C9DD8CE2EE
:100A080091E00197F1F708952A93AD85BE85EF85AA
:100A1800F88909950895E889F98908953497E88B44
:100A2800F98B0895AD85BE85EF85F88909950895F8
:100A3800F2DFF4CFA889B989149621D0EE83FF8319
:100A4800AE81BF810895EE83FF830895A889B9898F
:100A5800149615D0EA87FB870895109639F088EB2D
:100A68009BE00197F1F7A8951197C9F7089500241D
:100A7800AF0DB01D0895F195E195F0400895ED9101
:100A8800FC91119708950590F491E02D08957A93BB
:100A98006A93FA93EA9308951B2EBF2FF12D1A2E0D
:100AA800AE2FE12D08955A934A933A932A931A93B5
:100AB8000A9308955D814C813B812A8119810881BF
:100AC8000895AC0FBD1F05900D928A95E1F7089522
:00000001FF
