:040000002CC0FECF43
:10000400FDCFFCCFFBCFFACFF9CFF8CF8FC0F6CF1F
:10001400F5CF51C0F3CFF2CFF1CFF0CFEFCFEECF8A
:10002400EDCF1027E80364000A000100001000016E
:10003400100001000000000000000000FFFFFFFFAF
:10004400FFFF010002003800060004003A00060029
:10005400BE0340000000F894EE27ECBBF1E0FBBFC8
:10006400EBBFE5BF8DE0A2E0BB27ED938A95E9F7EE
:1000740080E094E0A0E6ED930197E9F7E6E4F0E090
:1000840085919591009761F0A591B5910590159092
:10009400BF01F00105900D920197E1F7FB01F0CF4C
:1000A400EFE5EDBFE4E0EEBFC0E6D1E05CC055246F
:1000B400442477240895EA93FA93EFB7EA93A2D3FA
:1000C4001BB10CB1E12FEC7189F4E52D5394F0E0F0
:1000D400E45CFC4F0083E0E8E51509F455247394CF
:1000E400E0E8E71519F47724689420F80991199148
:1000F400E991EFBFF991E99118951A937720F1F3FB
:10010400E42D4394F0E0E45CFC4F1081E0E8E41556
:1001140009F44424F8947A947894E12F67C2E8EEC1
:10012400F3E0E093BC03F093BD0308950A92AA930D
:10013400BA93EA93FA93EFB7EA93ADD2A091BC03D2
:10014400B091BD035BD33CF4ACEBB3E0ED91FD9116
:100154003197FE93EE93E991EFBFF991E991B9914B
:10016400A99109901895E0E0E7BBE2E0E8BBE0E084
:10017400E4BBE5BBECE3E1BBECE0E2BBE0E0E3BF06
:10018400E2BFEFBDE1E0EEBD86D2E0E0E7BDE6BD53
:10019400EBBDEABDE9BDE8BDE2BDE5BDE4BDE3BD3F
:1001A400E4E0E9BFE0E0E5BFEBB9E8E9EAB9E6E895
:1001B400E0BDE0E0E0BDEDE4E9B9E0E8E8B9E0E0A5
:1001C400E0BFE6B9EDB9E4D07894A39AA29AA19AD3
:1001D400AB98AA9AA99AA8EEB3E002D317D208D290
:1001E400A0EDB7E0FDD225D2E030E9F3AB9AAA9AAC
:1001F400A998E62DE03009F051C0AB9AAA9AA998C3
:10020400772009F04DD29924503009F046C048D2E5
:100214005F3F09F042C047D20217130724F440D2CB
:1002240049D24ED2F9CF3CD2E52FE40F09F0AEC04B
:100234004AD299F5A091FB02A13079F5E091FC0234
:10024400E0933A03E091FD02E0933B0340E0A0E039
:100254001BD2AFEF19D2A091A602AE5F15D2A2EACB
:1002640013D24E55A091A6020FD2E091A6024E0FD2
:100274002ED230D20E171F0744F431D2AC9104D2DF
:100284002ED2EC914E0F1CD2F4CFE42FE195AE2F79
:10029400FBD1E1E06E2E43DF0ADF78C0E130F1F5F7
:1002A400AB9AAA9821D229F426D2E1E09E2E37DF18
:1002B4006DC0772009F0F4D1503079F5F1D15F3F6A
:1002C40061F5F1D10217130724F4EAD1F3D1F8D17F
:1002D400F9CFE6D1E52FE40F09F058C0F4D1E9F4E1
:1002E400A091FB02AF3FC9F4F2D1E091FC02D80126
:1002F400F0E0AE17BF077CF4F801E350FD4F008037
:10030400EED1EC91E01519F4E2E06E2E02C0662401
:1003140002C0D6D1EACF03DFCADE38C0E230B1F57D
:10032400AB98AA9AE1D129F4E6D1E2E09E2EF7DE59
:100334002DC0772009F0B4D1503041F540E0B0D160
:100344005F3F21F5DADE2E2F3327C1D102171307C1
:1003540024F4A6D1AFD1B4D1F9CFA2D1E52FE40FC3
:10036400A9F4B1D199F4A091FB02A13079F4E09100
:10037400FC02A0913A03EA1731F4A0913B03E09107
:10038400FD02EA1709F002C0CADE91DE32CFFFCFC8
:10039400E0E0E1B9E7E0E0B9E4E0E6BF0895E4EACB
:1003A400E6BFE6B7E7FFFDCF0895A59AA49AAC98F7
:1003B400AD9AA8D115D2AC9A0895AA93E881E3B96D
:1003C400E4E8E6BFE6B7E7FFFDCF63C19ED1E8816D
:1003D400E295E07FEE0FEE0FE468E6BFE6B7E7FFD5
:1003E400FDCFE3B113C091D1DADFA8E4E6DF90D109
:1003F400A881B98190D192D144F4F501A881B98141
:1004040091D1AC91DADF91D1F3CFCFDF2296089569
:100414007CD1F8D15CD1E4ED8E2E8BD1E0E08CD18F
:1004240088D11196EFEF88D189D1AC81BD81129624
:10043400EC9346D183D1E195AC81BD811396EC93C5
:100444003FD177D11496E4ED77D162D17DD163D1D8
:1004540065D164F4F50135966CD179D10F017AD167
:10046400D0016AD177D18E0E60D1F0CFF5013596E7
:1004740060D158D1E82DE1955FD1F801AC81BD81FF
:10048400A05BBF4FED93FC93C0D1269608953DD158
:10049400B9D110E000E063D1F1F334D166D110306A
:1004A40011F483DF02C0113009F0F5CF2BD18EDFB8
:1004B40029D15BD1E03011F05BD143C05CD122D1B2
:1004C40054D1EF3F11F054D13CC055D15BD1FF93CF
:1004D400EF9318D17BDFAF91BF91EC9353D1FF938E
:1004E400EF9310D173DFAF91BF91EC934BD1FF9396
:1004F400EF9308D16BDFAF91BF91EC9309D1EA81FF
:10050400FB81E281E150D501F0E0AE17BF0754F45E
:1005140039D1FF93EF93F6D059DFAF91BF91EC93AC
:1005240004D1EDCF2FD1FF93EF93A0E0B0E04EDFE5
:10053400AF91BF91EC9308D1EED0E02F28D135DFF5
:10054400E1E063D124960895AA93E981FA81E05BFE
:10055400FF4F0F01EB81FC81E281E150A881EA1B8E
:10056400D00115D1D5D0A981BA81D5D0D7D094F4F2
:10057400F501A981BA81EBD00F01D5011596E88167
:10058400F0E0E5D0AB81BC81CDD0EC91D001EC930F
:10059400CCD0E9CF259608951A9310E0E0D0F1F37A
:1005A400B1D0E3D0103011F400DF02C0113009F0F3
:1005B400F5CFA8D00BDFA6D009DFE03011F0D8D0FA
:1005C40015C0A0D003DFEF3F11F0D2D00FC09AD0F6
:1005D400FDDEE03011F0CCD009C0A0E0B0E0F6DEE2
:1005E400EF3F11F0C5D002C0E0DEE1E019910895BB
:1005F400E2E0E0930402E1E0F0E0CDD0C9DECCDF3C
:10060400E030E9F3D6D0A1E09FDF0895E4E1DDD046
:10061400E4E1E0930602E0E0E0930702E4E0F0E0C6
:10062400BAD0BADFE030E9F3C4D0D5D0A53151F166
:1006340013C0EAE4CAD0E0E0E0930602E3E0F0E0AD
:10064400AAD0AADFE030E9F3B4D0C5D0AB3421F4AA
:10065400A0910502A13010F4E0E00895A6EAB2E00A
:10066400E0910A0294D054D035D0AE16BF0654F4AB
:10067400D501AA5ABD4FF501E55FFD4FE081EC932A
:1006840054D0F2CFE1E00895AA935D9BFECFE881B8
:10069400ECB921960895E1EDEDBDE0E2ECBD0895DD
:1006A4002CDD5E2F089540E028DD2E2F332700E057
:1006B40010E00895F801E650FD4F5083450F08956A
:1006C4000F5F1F4F0895A091FA02A13A089500E028
:1006D40010E00895E091A602F091A7020895A6E51E
:1006E400B2E0A00FB11F0895A998E091BC03F09166
:1006F400BD0330970895E0E0E0933A03E0933B03B1
:1007040066240895A1E0B0E00895BA93AA930895E9
:10071400AA24BB240895A05BBF4F08956BD0AE16E6
:10072400BF060895AE0FBF1F0895F50131965F010E
:100734000895AC81BD810895EC93C2CFAA81BB8199
:10074400EADFEC91EF5F0895AA81BB810895EA0F77
:10075400FB1F0895F501F8DFE5DFEC9108951FDE36
:10076400A9E42BDEE1B1E834089530DE1E2F0895AC
:100774001CDEE0E00895E02F0F5FE6DFF0E0E7DF46
:1007840010830895E02F0F5FDFDFF0E0E0CFF0E0AB
:10079400ED93FC930895E0935402F0935502E2EB39
:1007A400F1E0FA93EA93A4E0B2E032DEA2EBB1E026
:1007B4001ACEA0E6B1E06BDEE0E6F1E0FA93EA934C
:1007C400E4E0F2E0FA93EA930895E0930402E1E0AE
:1007D400E09305020895A0E0B7DEA0910402089515
:1007E400109639F088EB9BE00197F1F7A8951197E3
:1007F400C9F70895ED91FC911197089500240A1604
:100804000B0608951A930A9308951981088108958F
:00000001FF
