:0600000029C0FECFFDCF78
:10000600FCCFFBCFFACFF9CFF8CFF7CFF6CFF5CFAE
:100016004AC0F3CFF2CFF1CFF0CFEFCFEECFEDCF97
:100026001027E80364000A00010000100001100018
:10003600010000000000000080C00100020038003E
:10004600040004003A0002005E023E000000F8943C
:10005600EE27ECBBF1E0FBBFEBBFE5BF8DE0A2E016
:10006600BB27ED938A95E9F780E094E0A0E6ED934F
:100076000197E9F7E0E4F0E085919591009761F04A
:10008600A591B59105901590BF01F00105900D92CF
:100096000197E1F7FB01F0CFEFE5EDBFE4E0EEBF3E
:1000A600C0E6D1E022C0EA93FA93EFB7EA93BAD258
:1000B6001BB10CB1E12FEC7189F4E52D5394F0E0FE
:1000C600EA5AFD4F0083E8E0E51509F455247394D8
:1000D600E8E0E71519F47724689420F80991199156
:1000E600E991EFBFF991E9911895E0E0E7BBE2E00D
:1000F600E8BBE0E0E4BBE5BBECE0E1BBE2BBE0E093
:10010600E3BFE2BFEFBDEEBDEDBDECBDE7BDE6BDB5
:10011600EBBDEABDE9BDE8BDE2BDE5BDE4BDE3BDBD
:10012600E9BFE5BFEBB9E8E9EAB9E6E8E0BDE0E03A
:10013600E0BDEDE4E9B9E0E8E8B9E0E0E0BFE6B942
:10014600EDB91ED0A0E1ADD17894A8EEB3E055D2BA
:1001560042D135D15DD100E010E0E0910902D8012D
:10016600F0E0AE17BF073CF4F801E65FFD4FA08153
:10017600C0D1C6D1F2CFA4EFB1E03FD2EBCFFFCFD3
:10018600E0E0E1B9E7E0E0B9E4E007C0E4EAE6BFB1
:10019600E6B7E7FFFDCF0895E4E9E6BF0895AA9321
:1001A600E881E3B9E4E8E6BFE6B7E7FFFDCFA6C11D
:1001B600AAD1E881E295E07FEE0FEE0FE468E6BF94
:1001C600E6B7E7FFFDCFE3B113C09DD1DFDFA8E4BB
:1001D600E6DF9CD1A881B9819CD19ED144F4F4017B
:1001E600A881B9819DD1AC91DADF9DD1F3CFD4DF5F
:1001F6002296089588D116D200E010E0E4ED6E2E26
:1002060096D1E0E097D193D11196EFEF93D194D1A7
:10021600AC81BD811296EC9373D18ED1E195AC8100
:10022600BD811396EC936CD182D11496E4ED82D104
:100236006DD188D16ED170D164F4F401359677D141
:1002460084D10F0185D1D00175D182D16E0E6BD1CB
:10025600F0CFF40135966BD163D1E62DE1956AD1E5
:10026600F801AC81BD81A05BBF4FED93FC93DDD15E
:100276002696089548D1D6D110E000E06ED111F44B
:100286008BDF02C0113009F0F9CF70D16FD11E2F6C
:10029600E03011F06ED140C06FD168D11E2FEF3F14
:1002A60011F067D139C068D16ED1FF93EF935ED15B
:1002B600AF91BF91EC9367D1FF93EF9357D1AF9175
:1002C600BF91EC9360D1FF93EF9350D1AF91BF9163
:1002D600EC931CD1EA81FB81E281F0E031978E1626
:1002E6009F064CF450D1FF93EF9340D1AF91BF914D
:1002F600EC9319D1EFCF47D1FF93EF93A0E0B0E095
:1003060057DFAF91BF91EC931DD103D1E02FF0E001
:10031600ED93FC9341DFE1E088D124960895AA93FA
:10032600EB81FC81E281F0E03197DF01E881F0E0CA
:1003360072D1EA1BFB0BA981BA81A05BBF4FED937B
:10034600FC93E4D0A981BA81E4D0E6D094F4F40118
:10035600A981BA81FAD00F01D4011596E881F0E09F
:10036600F4D0AB81BC81DCD0EC91D001EC93DBD036
:10037600E9CF259608951A9310E0EFD011F40CDF1B
:1003860002C0113009F0F9CFF1D0F0D0E03011F011
:10039600F0D013C0EBD0EF3F11F0EBD00EC0E6D09B
:1003A600E03011F0E6D009C0A0E0B0E001DFEF3F99
:1003B60011F0DFD002C0F0DEE1E019910895E2E02D
:1003C600E0930402E1E0F0E0E3D0D5DFE03011F4A1
:1003D600F0D0FBCF2AC0E4E1EFD0E4E1E0930602DF
:1003E600E0E0E0930702E4E0F0E0D2D0C4DFE030E2
:1003F60011F4DFD0FBCFDDD0E5D0A0E090DFA091F7
:100406000402A53111F4E1E00895E0E008950895AD
:10041600EAE4D2D0E0E0E0930602E3E0F0E0B8D010
:10042600AADFE03011F4C5D0FBCFA4E1B0E0E5D0FF
:10043600C9D0A1E074DF0895AA93E881E07111F0B4
:10044600AB9A01C0AB98E881E07211F0AA9A01C09C
:10045600AA98E881E07411F0A99A01C0A998E881E8
:10046600E07811F0A89A01C0A898B8D0949AB6D0AE
:100476009498B4D043C0AA93A881DEDFE881E295C0
:10048600E883A881D9DF88EC8A95F1F737C0A2E026
:10049600A9D0ACE0F0DFA1E0A5D0E0E0AE2EBE2E04
:1004A6000895AA93A39AA29AA19AA09A8C9A8E9A30
:1004B6008D9A949896989598D880E881E058E0931C
:1004C6006002E881E054E093610273D08FD08ED051
:1004D6008DD0A0E2B1DF8CE291E00197F1F7A8E2BE
:1004E600CADFA4E0C8DFA5E8C6DFA6E0C4DFCFDF29
:1004F60005C0AA935D9BFECFE881ECB921960895CD
:100506000F5F1F4F0895BA93AA93089588249924DC
:100516000895A05BBF4F08957AD08E169F06089562
:10052600AE0FBF1F0895F40131964F010895AC81B7
:10053600BD810895EC93E4CFAA81BB81EADFEC91FB
:10054600EF5F0895AA81BB810895EA0FFB1F089506
:10055600F401F8DFE5DFEC91089518DEA9E41FDE6B
:10056600A1E0B0E025DE1E2F10300895A1E0B0E036
:100576001FCE12DEE0E00895E02F0F5FE3DFF0E02C
:10058600E4DF10830895E02F0F5FDCDFF0E0DDCFBE
:10059600E0935402F0935502E2EBF1E0FA93EA930A
:1005A600A4E0B2E027DEA2EBB1E00FDEA4E1B0E00A
:1005B60024C0A4E1B0E021C0E0930402E1E0E093AE
:1005C60005020895A0E6B1E055DEE0E6F1E0FA9313
:1005D600EA93E4E0F2E0FA93EA93089584E18A95D7
:1005E600F1F7089548DFA3E0B0E007C0A0E324DFF9
:1005F6008CE291E00197F1F70895109639F088EBB7
:100606009BE00197F1F7A8951197C9F70895ED9129
:10061600FC91119708951B2EBF2FF12D1A2EAE2F88
:10062600E12D08951A930A93089519810881089572
:00000001FF
