:040000002FC0FECF40
:10000400FDCFFCCFFBCFFACFF9CFF8CFF7CFF6CFA8
:10001400F5CF50C0F3CFF2CFF1CFF0CFEFCFEECF8B
:10002400EDCF1027E80364000A000100001000016E
:1000340010000100000000000000FFFFFFFFFFFFB1
:1000440080C0010002003800040004003A000600E9
:1000540044033E0002004A0344000000F894EE27E3
:10006400ECBBF1E0FBBFEBBFE5BF8DE0A2E0BB273B
:10007400ED938A95E9F780E094E0A0E6ED9301978B
:10008400E9F7E6E4F0E085919591009761F0A59198
:10009400B59105901590BF01F00105900D9201975F
:1000A400E1F7FB01F0CFEFE5EDBFE4E0EEBFC0E622
:1000B400D1E034C0EA93FA93EFB7EA9323D31BB1A8
:1000C4000CB1E12FEC7189F4E52D5394F0E0E45C7C
:1000D400FC4F0083E8E0E51509F455247394E8E047
:1000E400E71519F47724689420F809911991E99196
:1000F400EFBFF991E99118951A937720F1F3E42D64
:100104004394F0E0E45CFC4F1081E8E0E41509F46A
:100114004424F8947A947894E12FA3C1E0E0E7BBF7
:10012400E2E0E8BBE0E0E4BBE5BBECE0E1BBE2BB62
:10013400E0E0E3BFE2BFEFBDEEBDEDBDECBDE7BD6A
:10014400E6BDEBBDEABDE9BDE8BDE2BDE5BDE4BD8C
:10015400E3BDE9BFE5BFEBB9E8E9EAB9E6E8E0BD2C
:10016400E0E0E0BDEDE4E9B9E0E8E8B9E0E0E0BFF3
:10017400E6B9EDB94DD0A0E108D27894A8EEB3E089
:10018400ACD283D170D1B8DF5E2F503009F03EC0BD
:10019400B3DF5E2F5F3FD1F5AFDF2E2F332700E0B3
:1001A40010E00217130744F4A7DF5E2FF801E650AE
:1001B400FD4F508319D2F5CFA091FA02A13031F549
:1001C400E091FB02A0913A03EA1731F4A0913B03BA
:1001D400E091FC02EA17D1F0E091FB02E0933A03CC
:1001E400E091FC02E0933B036ED100E010E0FFD10C
:1001F4000E171F0744F4A6E5B2E0A00FB11FAC919F
:10020400ECD1F2D1F4CFA4EFB1E067D2BCCFFFCFF1
:10021400E0E0E1B9E7E0E0B9E4E0E6BF0895E4EA4C
:10022400E6BFE6B7E7FFFDCF0895A598A498A2E03E
:10023400E3D1A49A0895AA93E881E3B9E4E8E6BF78
:10024400E6B7E7FFFDCFCEC1D9D1E881E295E07FE3
:10025400EE0FEE0FE468E6BFE6B7E7FFFDCFE3B1CC
:1002640013C0CCD1DCDFA8E4E6DFCBD1A881B9810F
:10027400CBD1CDD144F4F401A881B981CCD1AC91D6
:10028400DADFCCD1F3CFD1DF22960895B7D13AD2B9
:1002940000E010E0E4ED6E2EC5D1E0E0C6D1C2D19D
:1002A4001196EFEFC2D1C3D1AC81BD811296EC930C
:1002B4009BD1BDD1E195AC81BD811396EC9394D1D2
:1002C400B1D11496E4EDB1D19CD1B7D19DD19FD1D8
:1002D40064F4F4013596A6D1B3D10F01B4D1D001A1
:1002E400A4D1B1D16E0E9AD1F0CFF40135969AD142
:1002F40092D1E62DE19599D1F801AC81BD81A05B45
:10030400BF4FED93FC9301D22696089577D1FAD18D
:1003140010E000E09DD1F1F3A1D11E2F103011F4B3
:1003240084DF02C0113009F0F5CF98D197D11E2F88
:10033400E03011F096D140C097D190D11E2FEF3FFD
:1003440011F08FD139C090D196D1FF93EF9386D11C
:10035400AF91BF91EC938FD1FF93EF937FD1AF9186
:10036400BF91EC9388D1FF93EF9378D1AF91BF9174
:10037400EC9347D1EA81FB81E281F0E031978E165C
:100384009F064CF478D1FF93EF9368D1AF91BF915E
:10039400EC9344D1EFCF6FD1FF93EF93A0E0B0E0A3
:1003A40053DFAF91BF91EC9348D12ED1E02FF0E011
:1003B400ED93FC933ADFE1E0A8D124960895AA9343
:1003C400EB81FC81E281F0E03197DF01E881F0E02C
:1003D40092D1EA1BFB0BA981BA81A05BBF4FED93BD
:1003E400FC930FD1A981BA810FD111D194F4F401F6
:1003F400A981BA8125D10F01D4011596E881F0E0D5
:100404001FD1AB81BC8107D1EC91D001EC9306D113
:10041400E9CF259608951A9310E01AD1F1F31ED16D
:100424001E2F103011F401DF02C0113009F0F5CF96
:1004340015D114D1E03011F014D113C00FD1EF3F16
:1004440011F00FD10EC00AD1E03011F00AD109C069
:10045400A0E0B0E0F9DEEF3F11F003D102C0E5DE29
:10046400E1E019910895E2E0E0930402E1E0F0E0B4
:1004740007D1CEDE13D1CFDFE03011F40FD1FBCFA3
:100484000DD10ED1A1E09BDF0895E4E115D1E4E1A3
:10049400E0930602E0E0E0930702E4E0F0E0F0D04D
:1004A400FDD0B9DFE03011F4F9D0FBCFF7D0F8D0AC
:1004B400A0E085DFA0910402A53111F4E1E00895E4
:1004C400E0E008950895EAE4F7D0E0E0E09306025E
:1004D400E3E0F0E0D5D0E2D09EDFE03011F4DED0EE
:1004E400FBCFDCD0DDD0A1E06ADFA6EAB2E0E09188
:1004F4000902F0E0ED93FC9384D079D08E169F0628
:1005040054F4D401AA5ABD4FF401E65FFD4FE081D3
:10051400EC9384D0F2CF0895AA93E881E07111F0AE
:10052400AB9A01C0AB98E881E07211F0AA9A01C0BD
:10053400AA98E881E07411F0A99A01C0A998E88109
:10054400E07811F0A89A01C0A898BCD0949ABAD0C7
:100554009498B8D047C0AA93A881DEDFE881E295D9
:10056400E883A881D9DF88EC8A95F1F73BC0A2E043
:10057400F2DFA3E041D0ACE0EEDFA1E0ECDFA3E0EA
:100584003BD0E0E0AE2EBE2E0895AA93A39AA29A81
:10059400A19AA09A8C9A8E9A8D9A949896989598E6
:1005A400D880E881E058E0934C03E881E054E0937C
:1005B4004D0374D08BD08AD089D0A0E2ADDF8CE219
:1005C40091E00197F1F7A8E2C6DFA4E0C4DFA5E853
:1005D400C2DFA6E0C0DFCBDF05C0AA935D9BFECFE0
:1005E400E881ECB9219608950F5F1F4F0895E091BB
:1005F400A602F091A7020895B0E06FC0BA93AA933F
:100604000895882499240895A05BBF4F08956FD05E
:100614008E169F060895AE0FBF1F0895F4013196FC
:100624004F010895AC81BD810895EC93DDCFAA817B
:10063400BB81EADFEC91EF5F0895AA81BB81089545
:10064400EA0FFB1F0895F401F8DFE5DFEC9108954C
:10065400E6DDA9E4F0DDE1B1E8340895A1E0B0E01D
:10066400F3CDE3DDE0E00895E02F0F5FE6DFF0E097
:10067400E7DF10830895E02F0F5FDFDFF0E0E0CFC6
:10068400E0935402F0935502E2EBF1E0FA93EA931B
:10069400A4E0B2E0FBDDA2EBB1E0E3CDA4E1ACCF9A
:1006A400A0E6B1E033DEE0E6F1E0FA93EA93E4E0B9
:1006B400F2E0FA93EA930895E0930402E1E0E09310
:1006C4000502089584E18A95F1F70895A0E324DFF3
:1006D4008CE291E00197F1F70895109639F088EBD8
:1006E4009BE00197F1F7A8951197C9F70895ED914B
:1006F400FC91119708951B2EBF2FF12D1A2EAE2FAA
:10070400E12D08951A930A93089519810881089593
:00000001FF
