:1000000032C0FECFFDCFFCCFFBCFFACFF9CFF8CF78
:10001000F7CFF6CFF5CF53C0F3CFF2CFF1CFF0CF7C
:10002000EFCFEECFEDCF1027E80364000A00010008
:100030000010000110000100000000000000253049
:1000400032780000FFFFFFFFFFFF80C001000200C9
:100050003800040004003A000600020344000200D5
:1000600008034A000000F894EE27ECBBF1E0FBBF68
:10007000EBBFE5BF8DE0A2E0BB27ED938A95E9F7E2
:1000800080E094E0A0E6ED930197E9F7ECE4F0E07E
:1000900085919591009761F0A591B5910590159086
:1000A000BF01F00105900D920197E1F7FB01F0CF40
:1000B000EFE5EDBFE4E0EEBFC0E6D1E022C0EA9399
:1000C000FA93EFB7EA93FAD41BB10CB1E12FEC71BC
:1000D00089F4E52D5394F0E0E650FD4F0083E8E00D
:1000E000E51509F455247394E8E0E71519F477242D
:1000F000689420F809911991E991EFBFF991E9917C
:100100001895E0E0E7BBE2E0E8BBE0E0E4BBE5BB7C
:10011000ECE0E1BBE2BBE0E0E3BFE2BFEFBDEEBD80
:10012000EDBDECBDE7BDE6BDEBBDEABDE9BDE8BD9B
:10013000E2BDE5BDE4BDE3BDE9BFE5BFEBB9E8E184
:10014000EAB9E6E8E0BDE0E0E0BDEDE4E9B9E0E809
:10015000E8B9E0E0E0BFE6B9EDB92BD0A0E163D2A9
:100160007894A8EEB3E080D4A1E685D25ED14ED1DA
:10017000A4E0DBD100E010E0E091F802F091F90298
:100180000E171F078CF4EEE3F0E0BCD3A8EAB2E050
:10019000A00FB11FEC91FF27662777277FD484E05B
:1001A00093D32696B2D3E8CFA4EFB1E05DD4E0CFED
:1001B000FFCFE0E0E1B9E7E0E0B9E4E0E6BF0895B1
:1001C000E4EAE6BFE6B7E7FFFDCF0895A598A49857
:1001D000A2E09ED3A49A0895AA93E881E3B9E4E843
:1001E000E6BFE6B7E7FFFDCF4BC294D3E881E295C7
:1001F000E07FEE0FEE0FE468E6BFE6B7E7FFFDCF66
:10020000E3B10FC087D3DCDFA8E4E6DF86D388D371
:100210008AD38CD32CF48ED3AC91DEDF90D3F7CF7E
:10022000D5DF2296089576D349D400E010E0E4EDBE
:100230006E2E89D3E0E08AD386D31196EFEF86D372
:1002400087D3AC81BD811296EC935FD381D3E195C6
:10025000AC81BD811396EC9358D375D31496E4ED1D
:1002600075D35BD37BD35FD361D364F4F40135964C
:100270006AD377D30F0178D3D00168D375D36E0ECC
:100280005ED3F0CFF40135965ED3AE0FBF1FE62DDF
:10029000E1955CD3F801AC81BD81A05BBF4FED93CC
:1002A000FC9313D42696089535D308D410E000E0CB
:1002B00087DFA9E491DF5ED31E2F103011F486DFB3
:1002C00002C0113009F0F4CF55D354D31E2FE030C3
:1002D00021F07CDFE0E0F9D326C14FD34BD31E2FB2
:1002E000EF3F19F051D3F1D31EC147D350D3FF9341
:1002F000EF9340D3AF91BF91EC9349D3FF93EF932A
:1003000039D3AF91BF91EC9342D3FF93EF9332D3A4
:10031000AF91BF91EC9301D3EA81FB81E281F0E0E0
:1003200031973AD34CF433D3FF93EF9323D3AF9168
:10033000BF91EC9304D3F0CF2AD3FF93EF93A0E0C7
:10034000B0E053DFAF91BF91EC9308D3ECD2E02F34
:10035000F0E0ED93FC933ADFE1E0B7D3E4C0AA9379
:10036000EB81FC81E281F0E03197DF01E881F0E090
:100370009AD3EA1BFB0BA981BA81A05BBF4FED9317
:10038000FC93CBD2A981BA81CED2D0D28CF4F40125
:10039000A981BA81E6D20F01D4011596E881F0E077
:1003A000E0D2AB81BC81AE0FBF1FF9D2C8D2EACF79
:1003B000259608951A9310E003DFA9E40DDFE1B15B
:1003C000E834D1F3D7D21E2F103011F4FFDE02C073
:1003D000113009F0F1CFCED2CDD2E03011F0D4D22D
:1003E00013C0C8D2EF3F11F0CFD20EC0C3D2E0305D
:1003F00011F0CAD209C0A0E0B0E0F7DEEF3F11F083
:10040000C3D202C0E3DEE1E019910895E2E0CBD26D
:10041000E1E0F0E0CBD2CDDED6D2D7D211F4D3D208
:10042000FCCFD1D2D5D2DDD20895E4E1DCD2E4E133
:10043000DFD2E0E0E0930702E4E0F0E0B7D2C3D21D
:10044000C4D211F4C0D2FCCFBED2C2D2A0E087DFAA
:10045000A0910402A53111F4E1E00895E0E00895CF
:100460000895EAE4C0D2E0E0C3D2E3E0F0E09ED237
:10047000AAD2ABD211F4A7D2FCCFA5D2A9D2B1D2C5
:10048000A6EAB2E0E0910902F0E0ED93FC9345D2D8
:10049000B2D254F4D401AA5ABD4FF401E65FFD4F25
:1004A000E081EC934CD2F4CF089534D2DADFE0E46B
:1004B0009AD2EA81E03011F0E1E601C0E0E698D29C
:1004C000EB81E093070229D2E6E0F0E065D244F444
:1004D000F401E85FFD4F0F012DD261D230D2F4CF8D
:1004E0001CD289D25CF4F401E25FFD4F0F01A6E556
:1004F000B2E0A80DB91D53D222D2F3CFE091A602EB
:10050000F091A7023A9652D25ED25FD211F45BD23A
:10051000FCCF59D25DD265D2E0910402E03011F0F7
:10052000E0E001C0E1E024960895AA93E881EA930F
:10053000E0E0EA93A2E0B3E0B8DFE03011F4E0E0FD
:100540009FC0E0E450D2E0E353D2E881E093070299
:10055000E4E0F0E02BD237D238D211F434D2FCCF21
:1005600032D236D23ED2E0910402E03011F0E0E027
:1005700087C0E0E6F1E0C6D1E8EAF2E0C3D1A2E04C
:10058000EEDEE1E07DC0C6D1A991B991EE27FF274B
:100590006D91662311F03196FBCF0895BBD1AA2748
:1005A000BB27E991F9910590002011F01196FBCF3E
:1005B000FD010895AA93E881E07111F0AB9A01C0A2
:1005C000AB98E881E07211F0AA9A01C0AA98E8817C
:1005D000E07411F0A99A01C0A998E881E07811F0BF
:1005E000A89A01C0A8980CD2949A0AD2949808D2DA
:1005F00047C0AA93A881DEDFE881E295E883A8815D
:10060000D9DF88EC8A95F1F73BC0A2E0F2DFA3E0E6
:100610007FD1ACE0EEDFA1E0ECDFA3E079D1E0E058
:10062000AE2EBE2E0895AA93A39AA29AA19AA09A3A
:100630008C9A8E9A8D9A949896989598D880E881FD
:10064000E058E0930A03E881E054E0930B03BBD148
:10065000DBD1DAD1D9D1A0E2ADDF8CE291E0019714
:10066000F1F7A8E2C6DFA4E0C4DFA5E8C2DFA6E098
:10067000C0DFCBDF05C0AA935D9BFECFE881ECB95C
:100680002196089547D1AA81F6DF4AD1ED91FD91D7
:100690003196FE93EE93239608953CD126970AD285
:1006A00010E0AC85BD85E0E0F0E0ED93FC93EA89D5
:1006B000FB893196EA8BFB8B3197E4912E2FE0304A
:1006C00009F4FCC0E12FE03031F4253211F411E0DF
:1006D00001C0A1D1F2C0E130A1F4253211F49BD1C7
:1006E000EBC012E040E000E02D3211F401E0E5C083
:1006F0002B3211F44BE2E1C0203211F440E2DDC0B4
:1007000002C0E23039F450E013E0203311F4006805
:10071000D4C003C0E33009F0D0C0203310F02A3336
:1007200008F007C0AAE05A9F502DE22FE0535E0F59
:10073000C4C0E22FE33639F475D177D173D1A481E7
:10074000AA9377D1B9C0E33729F479D17AD11BDFE5
:100750001E2F07C0E03749F472D173D11FDF1E2F5F
:10076000086002600F7730E02DC0E43611F0E93602
:1007700011F4046002C0E53729F4E6E2F0E06AD142
:1007800015E00BC0E83511F4086003C0E83709F044
:1007900093C0E0E3F0E05ED114E002FF11C04FD15E
:1007A0005CD1AB85AA2332F4EA85FB856BD1EA875D
:1007B000FB874DE2403011F01F5F01C00B7F02C08C
:1007C0003ED14BD100FD10C0151770F407FF08C0D3
:1007D00002FF04C00B7F242F115001C020E301C091
:1007E00020E219D15150F0CF312F01FF15C0303028
:1007F00091F003FF05C0EE81FF8125912BD105C04B
:10080000AE81BF812D91AE83BF8305D1503009F0F9
:1008100051503150ECCF47C020E3EE81FF813AD1F7
:10082000E887F987EE81FF81329614D1E885F98552
:10083000AA85BB85AE17BF0750F02F5FA885B98585
:10084000EA85FB85EA1BFB0BEA87FB87EFCF2A33A0
:1008500028F003FF02C0295F01C0295D04FD19C013
:10086000213320F4A885B985119709F409C05317DD
:1008700010F000FF01C011C020E207FF0AC020E312
:10088000006102FF06C00B7F4A93D3D0503009F0BD
:100890005150C1D0503009F051503150A885B98520
:1008A000129708F0B9CF00FF07C0503029F051501F
:1008B000E0E2EA93BED0F9CF10E0F9CEAC85BD8579
:1008C000E5D0FFD064960895FF92F82E2697F6D0D3
:1008D000DE011496D3D08D01E0E0EC83ED83EE834E
:1008E000EF83DE011896CAD0D1D00CD01A930A93A8
:1008F000E2E4F3E007D0DE011896CFDEE6D02896DA
:10090000FF900895FA93EA9308950F5F1F4F08959B
:10091000B0E0AAC0BA93AA930895882499240895B0
:10092000A881B9810895A05BBF4F0895AFD08E16FE
:100930009F060895F401F4DFAE0FBF1F0895F40180
:1009400031964F010895AC81BD810895EC93DDCFC0
:10095000AA81BB81E8DFEC91EF5F0895AA81BB819A
:100960000895EA0FFB1F0895F401F8DFAE0FBF1FD3
:10097000EC910895A1E0B0E038CCE02F0F5FEEDFFE
:10098000F0E0EFDF1083089521DCE0E00895E02F30
:100990000F5FE4DFF0E0E5CF8E169F060895EC913F
:1009A000D001EC930895E09304020895E09354027B
:1009B000F0935502E2EBF1E0A5DFA4E0B2E033DC16
:1009C000A2EBB1E01FCCA4E1A3CFF4DCE0300895AA
:1009D000A0E6B1E069DCE0E6F1E094DFE4E0F2E01B
:1009E00091CFA1E0BCCCDFDFE1E0E0930502089508
:1009F000E09306020895E091A602F091A702CCCF01
:100A000084E18A95F1F70895A0E3D4DD8CE291E0CA
:100A10000197F1F708952A93AD85BE85EF85F88992
:100A200009950895E889F98908953497E88BF98B39
:100A30000895AD85BE85EF85F88909950895F2DFA3
:100A4000F4CFA889B989149621D0EE83FF83AE81B3
:100A5000BF810895EE83FF830895A889B98914960C
:100A600015D0EA87FB870895109639F088EB9BE054
:100A70000197F1F7A8951197C9F708950024AF0DD4
:100A8000B01D0895F195E195F0400895ED91FC9128
:100A9000119708950590F491E02D08957A936A9343
:100AA000FA93EA9308951B2EBF2FF12D1A2EAE2F25
:100AB000E12D08955A934A933A932A931A930A93ED
:100AC00008955D814C813B812A81198108810895B7
:00000001FF
