:0A00000030C0FECFFDCFFCCFFBCFD8
:10000A00FACFF9CFF8CF93C0F6CFF5CF55C0F3CFDB
:10001A00F2CFF1CFF0CFEFCFEECFEDCF1027E8033D
:10002A0064000A0001000010000110000100000035
:10003A00000000000000FFFFFFFFFFFF80C001007B
:10004A0002003800060004003A000600BE03400021
:10005A000200C40346000000F894EE27ECBBF1E06E
:10006A00FBBFEBBFE5BF8DE0A2E0BB27ED938A950E
:10007A00E9F780E094E0A0E6ED930197E9F7E8E478
:10008A00F0E085919591009761F0A591B591059061
:10009A001590BF01F00105900D920197E1F7FB0160
:1000AA00F0CFEFE5EDBFE4E0EEBFC0E6D1E05CC023
:1000BA005524442477240895EA93FA93EFB7EA93F0
:1000CA00F9D31BB10CB1E12FEC7189F4E52D5394EE
:1000DA00F0E0E45CFC4F0083E0E8E51509F4552400
:1000EA007394E0E8E71519F47724689420F80991E5
:1000FA001991E991EFBFF991E99118951A9377202F
:10010A00F1F3E42D4394F0E0E45CFC4F1081E0E865
:10011A00E41509F44424F8947A947894E12F4BC2B4
:10012A00E8EEF3E0E093BC03F093BD0308950A926E
:10013A00AA93BA93EA93FA93EFB7EA93FED2A091FD
:10014A00BC03B091BD03B2D33CF4ACEBB3E0ED9188
:10015A00FD913197FE93EE93E991EFBFF991E99101
:10016A00B991A99109901895E0E0E7BBE2E0E8BBF4
:10017A00E0E0E4BBE5BBECE3E1BBECE0E2BBE0E0E2
:10018A00E3BFE2BFEFBDE1E0EEBDD7D2E0E0E7BDFD
:10019A00E6BDEBBDEABDE9BDE8BDE2BDE5BDE4BD36
:1001AA00E3BDE4E0E9BFE0E0E5BFEBB9E8E9EAB9BD
:1001BA00E6E8E0BDE0E0E0BDEDE4E9B9E0E8E8B991
:1001CA00E0E0E0BFE6B9EDB9D1D0A0E186D27894FB
:1001DA00A8EEB3E05DD303D2F0D1E62DE03009F00A
:1001EA004FC0992009F4AED29924503009F047C083
:1001FA00A9D25F3F09F043C0A8D20217130724F41B
:10020A00A1D2AAD2AFD2F9CF9DD2E52FE40F09F03D
:10021A00ABC0ABD2A1F5A091FB02A13081F5E09170
:10022A00FC02E0933A03E091FD02E0933B03F5D12F
:10023A0040E0A0E07BD2AFEF79D2A091A602AE5FF8
:10024A0075D2A2EA73D24E55A091A6026FD2E0915E
:10025A00A6024E0F8ED290D20E171F0744F491D2E7
:10026A00AC9164D28ED2EC914E0F7CD2F4CFE42FB3
:10027A00E195AE2F5BD2E1E06E2E52DF19DF74C03A
:10028A00E130D1F55FD282D229F486D2E1E09E2E06
:10029A0047DF6AC0503079F555D25F3F61F555D2D4
:1002AA000217130724F44ED257D25CD2F9CF4AD29E
:1002BA00E52FE40F09F058C058D2E9F4A091FB02E7
:1002CA00AF3FC9F456D2E091FC02D801F0E0AE1774
:1002DA00BF077CF4F801E350FD4F008052D2EC9145
:1002EA00E01519F4E2E06E2E02C0662402C03AD28A
:1002FA00EACF16DFDDDE38C0E230B1F523D246D2CE
:10030A0029F44AD2E2E09E2E0BDF2EC0503059F576
:10031A0040E018D25F3F29F5F1DE2E2F332729D28C
:10032A000217130724F40ED217D21CD2F9CF0AD21D
:10033A00E52FE40FC9F419D299F4A091FB02A13078
:10034A0079F4E091FC02A0913A03EA1731F4A09102
:10035A003B03E091FD02EA1709F002C0E1DEA8DEE4
:10036A0001C0A6DE01C0A4DE38CFFFCFE0E0E1B9CC
:10037A00E7E0E0B9E4E0E6BF0895E4EAE6BFE6B7FD
:10038A00E7FFFDCF0895A59AA49AAC98AD9AA2E08A
:10039A000AD2AC9A0895AA93E881E3B9E4E8E6BFE1
:1003AA00E6B7E7FFFDCFC7C100D2E881E295E07F5B
:1003BA00EE0FEE0FE468E6BFE6B7E7FFFDCFE3B165
:1003CA0013C0F3D1DADFA8E4E6DFF2D1A881B9815C
:1003DA00F2D1F4D144F4F501A881B981F3D1AC91F9
:1003EA00DADFF3D1F3CFCFDF22960895DED162D2DE
:1003FA00C0D1E4ED8E2EEDD1E0E0EED1EAD1119636
:10040A00EFEFEAD1EBD1AC81BD811296EC93AAD180
:10041A00E5D1E195AC81BD811396EC93A3D1D9D1F5
:10042A001496E4EDD9D1C4D1DFD1C5D1C7D164F4D2
:10043A00F5013596CED1DBD10F01DCD1D001CCD17B
:10044A00D9D18E0EC2D1F0CFF5013596C2D1BAD12B
:10045A00E82DE195C1D1F801AC81BD81A05BBF4F08
:10046A00ED93FC932AD2269608959FD123D210E0C9
:10047A0000E0C5D1F1F3C9D11E2F103011F483DF8A
:10048A0002C0113009F0F5CFC0D1BFD11E2FE03024
:10049A0011F0BED13FC0BFD1B8D11E2FEF3F11F02E
:1004AA00B7D138C0B8D1BED1FF93EF93AED1AF91D7
:1004BA00BF91EC93B7D1FF93EF93A7D1AF91BF91BF
:1004CA00EC93B0D1FF93EF93A0D1AF91BF91EC938E
:1004DA006FD1EA81FB81E281E150D501F0E0AE17EC
:1004EA00BF074CF49FD1FF93EF938FD1AF91BF9188
:1004FA00EC936BD1EECF96D1FF93EF93A0E0B0E0EF
:10050A0053DFAF91BF91EC936FD155D1E02F8FD1CB
:10051A003ADFE1E0D2D124960895AA93E981FA81DB
:10052A00E05BFF4F0F01EB81FC81E281E150A88182
:10053A00EA1BD0017CD13CD1A981BA813CD13ED100
:10054A0094F4F501A981BA8152D10F01D50115960A
:10055A00E881F0E04CD1AB81BC8134D1EC91D0017F
:10056A00EC9333D1E9CF259608951A9310E047D139
:10057A00F1F34BD11E2F103011F405DF02C01130F8
:10058A0009F0F5CF42D141D1E03011F041D113C089
:10059A003CD1EF3F11F03CD10EC037D1E03011F021
:1005AA0037D109C0A0E0B0E0FFDEEF3F11F030D153
:1005BA0002C0E9DEE1E019910895E2E0E093040265
:1005CA00E1E0F0E038D1D2DE44D1CFDFE03011F4FF
:1005DA0040D1FBCF3ED13FD1A1E09FDF0895E4E1B6
:1005EA0046D1E4E1E0930602E0E0E0930702E4E0AA
:1005FA00F0E021D12ED1B9DFE03011F42AD1FBCFBE
:10060A0028D129D1A0E089DFA0910402A53111F4F3
:10061A00E1E00895E0E008950895EAE428D1E0E0F1
:10062A00E0930602E3E0F0E006D113D19EDFE0306A
:10063A0011F40FD1FBCF0DD10ED1A1E06EDFA6EAE6
:10064A00B2E0E0910902F3D0B3D096D0AE16BF065D
:10065A0054F4D501AA5ABD4FF501E65FFD4FE0817A
:10066A00EC93B3D0F2CF0895AA93E881E07111F028
:10067A00AB9A01C0AB98E881E07211F0AA9A01C066
:10068A00AA98E881E07411F0A99A01C0A998E881B2
:10069A00E07811F0A89A01C0A898EFD0949AEDD00A
:1006AA009498EBD048C0AA93A881DEDFE881E2954E
:1006BA00E883A881D9DF88EC8A95F1F73CC0A2E0EB
:1006CA00F2DFA3E070D0ACE0EEDFA1E0ECDFA3E064
:1006DA006AD0E0E0CE2EDE2E0895AA93A39AA29ABB
:1006EA00A19AA09A8C9A8E9A8D9A9498969895988F
:1006FA00E881E093C803E058E093C603E881E05438
:10070A00E093C703A6D0BDD0BCD0BBD0A0E2ACDF7B
:10071A008CE291E00197F1F7A8E2C5DFA4E0C3DF1C
:10072A00A5E8C1DFA6E0BFDFCADF05C0AA935D9BCB
:10073A00FECFE881ECB921960895E1EDEDBDE0E246
:10074A00ECBD0895DBDC5E2F089540E0D7DC2E2F48
:10075A00332700E010E00895F801E650FD4F50837A
:10076A00450F08950F5F1F4F0895A091FA02A13A0D
:10077A00089500E010E00895E091A602F091A70222
:10078A000895A6E5B2E0A00FB11F0895E091BC0359
:10079A00F091BD0330970895E0E0E0933A03E093C7
:1007AA003B0366240895B0E073C0BA93AA930895F0
:1007BA00AA24BB240895A05BBF4F089573D0AE1638
:1007CA00BF060895AE0FBF1F0895F50131965F0168
:1007DA000895AC81BD810895EC93C4CFAA81BB81F1
:1007EA00EADFEC91EF5F0895AA81BB810895EA0FD1
:1007FA00FB1F0895F501F8DFE5DFEC910895BDDDF3
:10080A00A9E4C9DDE1B1E8340895A1E0B0E0CCCDB6
:10081A00BADDE0E00895E02F0F5FE6DFF0E0E7DF02
:10082A0010830895E02F0F5FDFDFF0E0E0CFF0E004
:10083A00ED93FC930895E0935402F0935502E2EB92
:10084A00F1E0FA93EA93A4E0B2E0D0DDA2EBB1E0E2
:10085A00B8CDA4E1A8CFA0E6B1E007DEE0E6F1E07A
:10086A00FA93EA93E4E0F2E0FA93EA930895E093C4
:10087A000402E1E0E0930502089584E18A95F1F724
:10088A000895A0E3F1DE8CE291E00197F1F7089573
:10089A00109639F088EB9BE00197F1F7A89511972C
:1008AA00C9F70895ED91FC911197089500240A164D
:1008BA000B0608951A930A930895198108810895D9
:00000001FF
