:0800000029C0FECFFDCFFCCFAB
:10000800FBCFFACFF9CFF8CFF7CFF6CFF5CF4AC06D
:10001800F3CFF2CFF1CFF0CFEFCFEECFEDCF102768
:10002800E80364000A00010000100001100001004C
:1000380000000000000080C0010002003800040039
:1000480004003A0002005E023E000000F894EE2729
:10005800ECBBF1E0FBBFEBBFE5BF8DE0A2E0BB2747
:10006800ED938A95E9F780E094E0A0E6ED93019797
:10007800E9F7E0E4F0E085919591009761F0A591AA
:10008800B59105901590BF01F00105900D9201976B
:10009800E1F7FB01F0CFEFE5EDBFE4E0EEBFC0E62E
:1000A800D1E022C0EA93FA93EFB7EA936BD21BB17F
:1000B8000CB1E12FEC7189F4E52D5394F0E0EA5A84
:1000C800FD4F0083E8E0E51509F455247394E8E052
:1000D800E71519F47724689420F809911991E991A2
:1000E800EFBFF991E9911895E0E0E7BBE2E0E8BBE2
:1000F800E0E0E4BBE5BBECE0E1BBE2BBE0E0E3BF92
:10010800E2BFEFBDEEBDEDBDECBDE7BDE6BDEBBDAD
:10011800EABDE9BDE8BDE2BDE5BDE4BDE3BDE9BFBB
:10012800E5BFEBB9E8E9EAB9E6E8E0BDE0E0E0BD43
:10013800EDE4E9B9E0E8E8B9E0E0E0BFE6B9EDB937
:100148001DD0A0E17AD17894A8EEB3E00DD221D1E8
:1001580000E010E0E0915402F09155020E171F07DD
:1001680044F4A4E0B2E0A00FB11FAC918ED194D1B9
:10017800F1CFA4EFB1E0F8D1EACFFFCFE0E0E1B9E9
:10018800E7E0E0B9E4E007C0E4EAE6BFE6B7E7FF86
:10019800FDCF0895E4E9E6BF0895AA93E881E3B99D
:1001A800E4E8E6BFE6B7E7FFFDCF74C178D1E881A0
:1001B800E295E07FEE0FEE0FE468E6BFE6B7E7FFF3
:1001C800FDCFE3B111C06BD1DFDFA8E4E6DF6AD170
:1001D8006CD16ED170D13CF4F40167D170D1AC917F
:1001E800DCDF70D1F5CFD6DF2296089558D1CAD179
:1001F80000E010E0E4ED6E2E69D1E0E06AD166D14E
:100208001196EFEF66D167D1AC81BD811296EC9360
:1002180043D161D1E195AC81BD811396EC933CD17A
:1002280055D11496E4ED55D13DD15BD141D143D19F
:1002380064F4F40135964AD157D10F0158D1D00151
:1002480048D155D16E0E3ED1F0CFF40135963ED14E
:1002580036D1E62DE1953DD1F801AC81BD81A05B99
:10026800BF4FED93FC9391D12696089518D18AD16A
:1002780010E000E041D111F48DDF02C0113009F027
:10028800F9CF43D142D11E2FE03021F083DFE0E0E7
:100298007CD159C03DD139D11E2FEF3F19F03FD144
:1002A80074D151C035D13ED1FF93EF932ED1AF9188
:1002B800BF91EC9337D1FF93EF9327D1AF91BF91C3
:1002C800EC9330D1FF93EF9320D1AF91BF91EC9392
:1002D800E9D02DD18E169F064CF424D1FF93EF93CD
:1002E80014D1AF91BF91EC93EDD0F3CF1BD1FF9315
:1002F800EF93A0E0B0E05ADFAF91BF91EC93F1D05B
:10030800D7D0E02FF0E0ED93FC9344DFE1E03DD15E
:100318001AC0C5D00CD1A881B981A05BBF4FED939D
:10032800FC93C0D0C2D0C4D0C6D06CF4F401BDD008
:10033800DBD00F01F4013596D4D0C1D0EC91D001B7
:10034800EC93C0D0EFCF249608951A9310E0D4D040
:1003580011F420DF02C0113009F0F9CFD6D0D5D082
:10036800E03011F0DCD013C0D0D0EF3F11F0D7D07F
:100378000EC0CBD0E03011F0D2D009C0A0E0B0E080
:1003880015DFEF3F11F0CBD002C004DFE1E0199197
:100398000895E2E0E0930402E1E0F0E0E093540223
:1003A800F0935502E2EBF1E0C8D020DFA2EBB1E018
:1003B8000ADFC8D0CADFE03011F4C4D0FBCFC2D006
:1003C800A0E6B1E053DFE0E6F1E0B7D0A2DF0895A0
:1003D800AA93E881E07111F0AB9A01C0AB98E8816B
:1003E800E07211F0AA9A01C0AA98E881E07411F0AD
:1003F800A99A01C0A998E881E07811F0A89A01C0EB
:10040800A898A3D0949AA1D094989FD043C0AA93B7
:10041800A881DEDFE881E295E883A881D9DF88EC4E
:100428008A95F1F737C0A2E094D0ACE0F0DFA1E004
:1004380090D0E0E0AE2EBE2E0895AA93A39AA29A79
:10044800A19AA09A8C9A8E9A8D9A94989698959833
:10045800D880E881E058E0936002E881E054E093B6
:10046800610270D07AD079D078D0A0E2B1DF8CE286
:1004780091E00197F1F7A8E2CADFA4E0C8DFA5E898
:10048800C6DFA6E0C4DFCFDF05C0AA935D9BFECF21
:10049800E881ECB9219608950F5F1F4F0895BA932C
:1004A800AA930895882499240895A881B981089564
:1004B800A05BBF4F089562D08E169F060895AE0FB9
:1004C800BF1F0895F40131964F010895AC81BD8195
:1004D8000895EC93E1CFAA81BB81EADFEC91EF5F4D
:1004E8000895AA81BB810895EA0FFB1F0895F401BE
:1004F800F8DFE5DFEC91089547DEA9E44EDEA1E0E0
:10050800B0E054DE1E2F10300895A1E0B0E04ECECA
:10051800E02F0F5FE6DFF0E0E7DF108308953ADEB3
:10052800E0E00895E02F0F5FDCDFF0E0DDCFEA8147
:10053800FB81E281F0E031970895FA93EA93A4E011
:10054800B2E00895A4E1B0E00FC084E18A95F1F724
:1005580008955DDFA3E0B0E007C0A0E339DF8CE2D7
:1005680091E00197F1F70895109639F088EB9BE038
:100578000197F1F7A8951197C9F70895ED91FC91A6
:10058800119708951A930A93089519810881089577
:00000001FF
